:10000000A6C00000BFC00000BDC00000BBC0000013
:10001000B9C00000B7C00000B5C00000B3C0000008
:10002000B1C00000AFC00000ADC00000D2C40000ED
:10003000A9C00000A7C00000A5C00000A3C0000028
:10004000A1C000009FC000009DC000009BC0000038
:1000500099C0000097C0000095C000002DC20000AC
:1000600091C000008FC000008DC000008BC0000058
:1000700089C00000240350004F004B004B00450096
:100080004E00200043004F004E00540052004F002D
:100090004C004C004500520000001C0348004F007B
:1000A00052004900200043004F002E002C004C005D
:1000B000540044002E000000040309040902290032
:1000C00001010080FA090400000203000000092178
:1000D0001101000122560007050203400005070533
:1000E000810340000512010002000000400D0F9244
:1000F0000000010102000105010905A1011500250B
:100100000135004501750195100509190129108176
:100110000205012507463B0175049501651409395F
:10012000814265009501810126FF0046FF000930EC
:100130000931093209357508950481020600FF0965
:1001400020950181020A212695089102C000112400
:100150001FBECFEFD2E0DEBFCDBF11E0A0E0B1E027
:10016000E6E8FEE002C005900D92A430B107D9F791
:1001700021E0A4E0B1E001C01D92AF31B207E1F788
:1001800096D17FC63DCF8F929F92AF92BF92CF9272
:10019000DF92EF92FF920F931F93CF93DF9384B779
:1001A000877F84BF0FB6F894A8958091600088611E
:1001B00080936000109260000FBE90E080E80FB660
:1001C000F89480936100909361000FBE8CECC82E70
:1001D000D12C90E1A92EB12CF601B182A0822AEC9B
:1001E000E22EF12C36E0832EF701808208EC10E03D
:1001F00042E0942EF8019082C9ECD0E088E1888337
:10020000539A5A9A8AB180638AB98BB180638BB949
:10021000D1D31882F8011082F7011082F601B18261
:10022000A082F7018082F801908288E98883DF91BB
:10023000CF911F910F91FF90EF90DF90CF90BF90E3
:10024000AF909F908F9008950895089542E360ECD9
:1002500082E0F0D242E361EC81E0ECC20895FC015F
:1002600088E0DF01982F1D929A95E9F790E8958331
:100270009683828380910E0120910E0140910E01A0
:1002800090910E0182958695847022952695227014
:10029000282B50E0440F551F40745527892F90E0BC
:1002A00035E0880F991F3A95E1F788279270842BE3
:1002B000952B822B40815181482B592B51834083B0
:1002C00080910F0190910F0186958071292F30E068
:1002D000220F331F20723327282BC901842B952B23
:1002E0009183808380910E018F708530D1F040F42E
:1002F0008230C9F08430C1F08130B9F482E014C09A
:10030000883059F020F4863081F485E00DC08930C2
:1003100031F08A3051F487E007C0128206C081E0D4
:1003200003C083E001C086E0828380910F018F705B
:10033000823079F028F4813069F48FEF85830AC028
:10034000843021F0883031F4168204C08FEF868328
:1003500001C01582909110018091030189171CF052
:100360008091030101C0892F8093030180910201D4
:1003700098171CF08091020101C0892F809302011F
:10038000492F092E000C550B191634F42091030146
:10039000CA016FE770E005C020910201CA0160E860
:1003A0007FEF37D5622F220F770B44D560586383D8
:1003B0009091110191958091010189171CF0809114
:1003C000010101C0892F80930101809100019817DC
:1003D0001CF08091000101C0892F80930001492FFA
:1003E000092E000C550B191634F420910101CA0195
:1003F0006FE770E005C020910001CA0160E87FEF5F
:1004000008D5622F220F770B15D56058648388E0DA
:10041000A6E0B1E001900D928A95E1F70895CF939F
:10042000DF93CDB7DEB728970FB6F894DEBF0FBEC7
:10043000CDBF80911601843089F582E08093E90078
:100440008091E80082FF12C08091E80085FF09C01A
:1004500040E050E067E070E0CE010196E6D0811107
:10046000F7CF8091E8008B778093E80081E080935C
:10047000E9008091E80080FF11C0CE010196EFDE17
:1004800040E050E068E070E0CE01019684D0811138
:10049000F7CF8091E8008E778093E80028960FB61A
:1004A000F894DEBF0FBECDBFDF91CF9108956BDE14
:1004B0007894B5DF94D4FDCF1F920F920FB60F92B0
:1004C00011248F939F93EF93FF93E0910401F09198
:1004D00005018091CE00E25FFE4F80838091040190
:1004E00090910501019690930501809304018091FC
:1004F000040190910501049724F0109205011092D7
:100500000401FF91EF919F918F910F900FBE0F907B
:100510001F901895292F332723303105E1F058F427
:100520002130310599F02230310569F589E290E0FA
:100530002CEB30E02CC02132310501F122323105A3
:1005400011F586E590E027EF30E021C082E190E0F0
:1005500025EE30E01CC099278130910549F028F044
:10056000029789F4E4E7F0E005C0E8EBF0E002C0B0
:10057000EAE9F0E0849190E09F0109C089E090E011
:100580002EEC30E004C080E090E020E030E0FA01A2
:10059000318320830895CF92DF92EF92FF920F93E1
:1005A0001F93CF93DF93EC018B017A0197D18111D7
:1005B00033C0E114F10439F0F70180819181081B07
:1005C000190BC80FD91FC12CD12C0115110519F118
:1005D0008091E80085FD16C08091E8008E778093B9
:1005E000E800FDD3E114F10449F0F7018081918125
:1005F000C80ED91ED182C08285E00EC06FD188237B
:1006000021F30AC089918093F10001501109FFEF95
:10061000CF1ADF0ADACF80E0DF91CF911F910F91DF
:10062000FF90EF90DF90CF900895CF92DF92EF92FE
:10063000FF920F931F93CF93DF93EC018B017A010D
:100640004DD1811133C0E114F10439F0F7018081FB
:100650009181081B190BC80FD91FC12CD12C011572
:10066000110519F18091E80085FD16C08091E80020
:100670008B778093E800B3D3E114F10449F0F701DC
:1006800080819181C80ED91ED182C08285E00EC0C2
:1006900025D1882321F30AC08091F100899301506C
:1006A0001109FFEFCF1ADF0ADACF80E0DF91CF9197
:1006B0001F910F91FF90EF90DF90CF9008952091C0
:1006C0001D0130911E012617370748F0611571058D
:1006D00039F42091E8002E772093E80001C0B90199
:1006E000FC0120E06115710569F1809116018823F4
:1006F000E1F18530E1F18091E80083FD3AC080911D
:10070000E80082FD2CC08091E80080FFEBCF809153
:10071000F20090E06115710551F08034910538F4D4
:1007200021912093F100615071090196F3CF21E0EE
:100730008034910509F020E08091E8008E77809365
:10074000E800D0CF2111D1CF0AC0809116018823B3
:1007500061F0853061F08091E80083FD0AC08091EE
:10076000E80082FFF2CF80E0089582E0089583E000
:10077000089581E0089520911D0130911E012617F2
:10078000370748F06115710539F42091E8002E779C
:100790002093E80001C0B901FC0120E0611571055A
:1007A00081F180911601882309F43EC0853009F457
:1007B0003DC08091E80083FD3BC08091E80082FD50
:1007C0002DC08091E80080FFE9CF8091F20090E099
:1007D0006115710559F08034910540F424912093FE
:1007E000F1003196615071090196F2CF21E0803419
:1007F000910509F020E08091E8008E778093E80071
:10080000CDCF2111CECF0AC080911601882361F08F
:10081000853061F08091E80083FD0AC08091E80096
:1008200082FFF2CF80E0089582E0089583E008958A
:1008300081E00895982F953068F59093E900981716
:1008400039F07091EC002091ED005091F00003C060
:10085000242F762F50E021FD02C09F5FECCF309116
:10086000EB003E7F3093EB003091ED003D7F309305
:10087000ED003091EB0031603093EB007093EC00B1
:100880002093ED005093F0002091EE0027FDE5CF7E
:1008900080E008958F708093E90081E00895809151
:1008A000170187FF11C08091E80082FD05C080918B
:1008B00016018111F8CF11C08091E8008B770BC031
:1008C00080911601882349F08091E80080FFF8CFDD
:1008D0008091E8008E778093E80008952091E400ED
:1008E0003091E50095E64091EC00842F817040FF47
:1008F00023C08091E80080FD1DC0809116018823EF
:1009000099F0853099F08091EB0085FD11C0409100
:10091000E4005091E5002417350729F3915011F0B8
:100920009A01E1CF84E0089582E0089583E008957C
:1009300081E0089580E008954091E80042FFDDCF16
:10094000089541D043D08091D8008F778093D8000C
:100950008091D80080688093D8008091D8008F7DE6
:100960008093D80084E089BD86E089BD09B400FE8B
:10097000FDCF1092160110921201109214011092E4
:10098000130142E360E080E055DF8091E1008E7F5B
:100990008093E1008091E20081608093E200809189
:1009A000E20088608093E2008091E0008E7F809377
:1009B000E0000895E3E6F0E080818E7F808381E0AF
:1009C00080931501BECF1092E20008951092E100CD
:1009D00008951F920F920FB60F9211242F933F93F9
:1009E0004F935F936F937F938F939F93AF93BF9337
:1009F000EF93FF938091E10082FF0AC08091E200B3
:100A000082FF06C08091E1008B7F8093E100E6D1F8
:100A10008091E10080FF17C08091E20080FF13C049
:100A20008091E2008E7F8093E2008091E2008061FD
:100A30008093E2008091D80080628093D80019BC36
:100A40001092160102DC8091E10084FF2FC080919A
:100A5000E20084FF2BC084E089BD86E089BD09B433
:100A600000FEFDCF8091D8008F7D8093D8008091CB
:100A7000E1008F7E8093E1008091E2008F7E809381
:100A8000E2008091E20081608093E2008091120197
:100A9000882311F084E007C08091E30087FD02C045
:100AA00081E001C083E080931601CEDB8091E100FC
:100AB00083FF22C08091E20083FF1EC08091E1008D
:100AC000877F8093E10082E08093160110921201EB
:100AD0008091E1008E7F8093E1008091E2008E7F23
:100AE0008093E2008091E20080618093E20042E323
:100AF00060E080E09FDE72D1FF91EF91BF91AF91F6
:100B00009F918F917F916F915F914F913F912F9125
:100B10000F900FBE0F901F9018951F93CF93DF93E8
:100B2000CDB7DEB7AA970FB6F894DEBF0FBECDBF24
:100B3000E7E1F1E08091F100819321E0EF31F207EC
:100B4000C9F78CDB8091E80083FF30C180911701E9
:100B500090911801953009F483C030F49130A9F1D7
:100B600068F0933091F122C1983009F4EFC09930C8
:100B700009F4FBC0963009F019C194C0803821F007
:100B8000823809F013C108C08091130190911401BB
:100B9000992389F082600FC080911B018F7085308E
:100BA00008F004C18093E9008091EB0085FB882761
:100BB00080F91092E9009091E800977F9093E80007
:100BC0008093F1001092F100CCC0282F2D7F09F006
:100BD000EDC0882319F0823061F0E8C080911901DE
:100BE000813009F0E3C0933009F080E08093140174
:100BF0002EC08091190181112AC080911B018F7034
:100C00002FEF280F243008F0D1C08093E900209105
:100C1000EB0020FF1CC0933021F48091EB00806238
:100C200014C09091EB0090619093EB0021E030E0D4
:100C3000A90102C0440F551F8A95E2F74093EA00CC
:100C40001092EA008091EB0088608093EB00109294
:100C5000E9008091E800877F8093E80020DEA6C04D
:100C60008111A4C0109119011F778091E300807851
:100C7000812B8093E3008091E800877F8093E800D8
:100C80000EDE8091E80080FFFCCF8091E300806859
:100C90008093E300111102C082E001C083E08093E1
:100CA000160184C08058823008F080C080911901FC
:100CB00090911A018C3D53E0950771F583E08A838A
:100CC0008AE289834FB7F894DE01139620E03EE074
:100CD00051E2E32FF0E050935700E49120FF03C06E
:100CE000E295EF703F5FEF708E2F90E0EA3010F0EA
:100CF000C79601C0C0968D939D932F5F243149F70D
:100D00004FBF8091E800877F8093E8006AE270E03F
:100D1000CE010196D4DC14C060911B0170911C01BE
:100D2000AE014F5F5F4FF6DBBC01892B09F43EC07B
:100D30009091E800977F9093E80089819A811BDD6C
:100D40008091E8008B778093E80030C0803871F59F
:100D50008091E800877F8093E80080911201809362
:100D6000F1008091E8008E7777CF81111FC08091CC
:100D7000190190911A0199270297C4F48091E80013
:100D8000877F8093E800809119018093120187DDAD
:100D900080911201811106C08091E30087FD02C09D
:100DA00081E001C084E08093160150DA8091E80070
:100DB00083FF0AC08091E800877F8093E8008091DC
:100DC000EB0080628093EB00AA960FB6F894DEBF2A
:100DD0000FBECDBFDF91CF911F9108950895CF939E
:100DE00080911601882399F0C091E900CF7090910D
:100DF000EC00892F817090FD80E8C82B1092E900EB
:100E00008091E80083FD89DECF70C093E900CF9127
:100E100008950024552704C0080E591F880F991FF4
:100E2000009729F076956795B8F37105B9F7802D8D
:100E3000952F089597FB072E16F4009406D077FDA2
:100E400008D00BD007FC05D03EF4909581959F4FBC
:100E50000895709561957F4F0895AA1BBB1B51E1C2
:100E600007C0AA1FBB1FA617B70710F0A61BB70B1A
:100E7000881F991F5A95A9F780959095BC01CD01BF
:060E80000895F894FFCF75
:040E8600C43CC43C68
:00000001FF
